{
  "contractName": "SharedWallet",
  "abi": [
    {
      "anonymous": false,
      "inputs": [
        {
          "indexed": true,
          "internalType": "address",
          "name": "_forWho",
          "type": "address"
        },
        {
          "indexed": true,
          "internalType": "address",
          "name": "_byWhom",
          "type": "address"
        },
        {
          "indexed": false,
          "internalType": "uint256",
          "name": "_prevAmount",
          "type": "uint256"
        },
        {
          "indexed": false,
          "internalType": "uint256",
          "name": "_curAmount",
          "type": "uint256"
        }
      ],
      "name": "AllowanceChanged",
      "type": "event"
    },
    {
      "anonymous": false,
      "inputs": [
        {
          "indexed": true,
          "internalType": "address",
          "name": "_from",
          "type": "address"
        },
        {
          "indexed": false,
          "internalType": "uint256",
          "name": "_amount",
          "type": "uint256"
        }
      ],
      "name": "MoneyReceived",
      "type": "event"
    },
    {
      "anonymous": false,
      "inputs": [
        {
          "indexed": true,
          "internalType": "address",
          "name": "_beneficiary",
          "type": "address"
        },
        {
          "indexed": false,
          "internalType": "uint256",
          "name": "_amount",
          "type": "uint256"
        }
      ],
      "name": "MoneySent",
      "type": "event"
    },
    {
      "anonymous": false,
      "inputs": [
        {
          "indexed": true,
          "internalType": "address",
          "name": "previousOwner",
          "type": "address"
        },
        {
          "indexed": true,
          "internalType": "address",
          "name": "newOwner",
          "type": "address"
        }
      ],
      "name": "OwnershipTransferred",
      "type": "event"
    },
    {
      "inputs": [
        {
          "internalType": "address",
          "name": "_who",
          "type": "address"
        },
        {
          "internalType": "uint256",
          "name": "_amount",
          "type": "uint256"
        }
      ],
      "name": "addAllowance",
      "outputs": [],
      "stateMutability": "nonpayable",
      "type": "function"
    },
    {
      "inputs": [
        {
          "internalType": "address",
          "name": "",
          "type": "address"
        }
      ],
      "name": "allowance",
      "outputs": [
        {
          "internalType": "uint256",
          "name": "",
          "type": "uint256"
        }
      ],
      "stateMutability": "view",
      "type": "function",
      "constant": true
    },
    {
      "inputs": [],
      "name": "owner",
      "outputs": [
        {
          "internalType": "address",
          "name": "",
          "type": "address"
        }
      ],
      "stateMutability": "view",
      "type": "function",
      "constant": true
    },
    {
      "inputs": [],
      "name": "renounceOwnership",
      "outputs": [],
      "stateMutability": "nonpayable",
      "type": "function"
    },
    {
      "inputs": [
        {
          "internalType": "address",
          "name": "newOwner",
          "type": "address"
        }
      ],
      "name": "transferOwnership",
      "outputs": [],
      "stateMutability": "nonpayable",
      "type": "function"
    },
    {
      "stateMutability": "payable",
      "type": "receive",
      "payable": true
    },
    {
      "inputs": [
        {
          "internalType": "address payable",
          "name": "_to",
          "type": "address"
        },
        {
          "internalType": "uint256",
          "name": "_amount",
          "type": "uint256"
        }
      ],
      "name": "withdrawMoney",
      "outputs": [],
      "stateMutability": "nonpayable",
      "type": "function"
    }
  ],
  "bytecode": "0x608060405234801561001057600080fd5b5061002d61002261003260201b60201c565b61003a60201b60201c565b6100fe565b600033905090565b60008060009054906101000a900473ffffffffffffffffffffffffffffffffffffffff169050816000806101000a81548173ffffffffffffffffffffffffffffffffffffffff021916908373ffffffffffffffffffffffffffffffffffffffff1602179055508173ffffffffffffffffffffffffffffffffffffffff168173ffffffffffffffffffffffffffffffffffffffff167f8be0079c531659141344cd1fd0a4f28419497f9722a3daafe3b4186f6b6457e060405160405180910390a35050565b610da18061010d6000396000f3fe6080604052600436106100595760003560e01c80633e5beab9146100b3578063715018a6146100f05780638da5cb5b14610107578063f274c89714610132578063f2fde38b1461015b578063f3c40c4b14610184576100ae565b366100ae573373ffffffffffffffffffffffffffffffffffffffff167f27b15ed4cf832749ed39f33a64e4707ed60a761485e41ffec7343ecaddc0c02a346040516100a49190610b2b565b60405180910390a2005b600080fd5b3480156100bf57600080fd5b506100da60048036038101906100d59190610939565b6101ad565b6040516100e79190610b2b565b60405180910390f35b3480156100fc57600080fd5b506101056101c5565b005b34801561011357600080fd5b5061011c61024d565b6040516101299190610a90565b60405180910390f35b34801561013e57600080fd5b5061015960048036038101906101549190610966565b610276565b005b34801561016757600080fd5b50610182600480360381019061017d9190610939565b6103fc565b005b34801561019057600080fd5b506101ab60048036038101906101a691906109a6565b6104f4565b005b60016020528060005260406000206000915090505481565b6101cd6105b8565b73ffffffffffffffffffffffffffffffffffffffff166101eb61024d565b73ffffffffffffffffffffffffffffffffffffffff1614610241576040517f08c379a000000000000000000000000000000000000000000000000000000000815260040161023890610aeb565b60405180910390fd5b61024b60006105c0565b565b60008060009054906101000a900473ffffffffffffffffffffffffffffffffffffffff16905090565b8061027f610684565b806102c9575080600160003373ffffffffffffffffffffffffffffffffffffffff1673ffffffffffffffffffffffffffffffffffffffff1681526020019081526020016000205410155b610308576040517f08c379a00000000000000000000000000000000000000000000000000000000081526004016102ff90610b0b565b60405180910390fd5b4782111561034b576040517f08c379a000000000000000000000000000000000000000000000000000000000815260040161034290610acb565b60405180910390fd5b610353610684565b6103625761036133836106c1565b5b8273ffffffffffffffffffffffffffffffffffffffff167f7f51d406915971d4ac1c91af96be5187ea6ab64753785aad519a533def80a41e836040516103a89190610b2b565b60405180910390a28273ffffffffffffffffffffffffffffffffffffffff166108fc839081150290604051600060405180830381858888f193505050501580156103f6573d6000803e3d6000fd5b50505050565b6104046105b8565b73ffffffffffffffffffffffffffffffffffffffff1661042261024d565b73ffffffffffffffffffffffffffffffffffffffff1614610478576040517f08c379a000000000000000000000000000000000000000000000000000000000815260040161046f90610aeb565b60405180910390fd5b600073ffffffffffffffffffffffffffffffffffffffff168173ffffffffffffffffffffffffffffffffffffffff1614156104e8576040517f08c379a00000000000000000000000000000000000000000000000000000000081526004016104df90610aab565b60405180910390fd5b6104f1816105c0565b50565b6104fc6105b8565b73ffffffffffffffffffffffffffffffffffffffff1661051a61024d565b73ffffffffffffffffffffffffffffffffffffffff1614610570576040517f08c379a000000000000000000000000000000000000000000000000000000000815260040161056790610aeb565b60405180910390fd5b80600160008473ffffffffffffffffffffffffffffffffffffffff1673ffffffffffffffffffffffffffffffffffffffff168152602001908152602001600020819055505050565b600033905090565b60008060009054906101000a900473ffffffffffffffffffffffffffffffffffffffff169050816000806101000a81548173ffffffffffffffffffffffffffffffffffffffff021916908373ffffffffffffffffffffffffffffffffffffffff1602179055508173ffffffffffffffffffffffffffffffffffffffff168173ffffffffffffffffffffffffffffffffffffffff167f8be0079c531659141344cd1fd0a4f28419497f9722a3daafe3b4186f6b6457e060405160405180910390a35050565b60003373ffffffffffffffffffffffffffffffffffffffff166106a561024d565b73ffffffffffffffffffffffffffffffffffffffff1614905090565b806106ca610684565b80610714575080600160003373ffffffffffffffffffffffffffffffffffffffff1673ffffffffffffffffffffffffffffffffffffffff1681526020019081526020016000205410155b610753576040517f08c379a000000000000000000000000000000000000000000000000000000000815260040161074a90610b0b565b60405180910390fd5b3373ffffffffffffffffffffffffffffffffffffffff168373ffffffffffffffffffffffffffffffffffffffff167f3691d1a86d99355e52b689ca70a7bdf6d80763237a6aa06e5fa43964eac7244b600160008773ffffffffffffffffffffffffffffffffffffffff1673ffffffffffffffffffffffffffffffffffffffff1681526020019081526020016000205461083486600160008a73ffffffffffffffffffffffffffffffffffffffff1673ffffffffffffffffffffffffffffffffffffffff168152602001908152602001600020546108e490919063ffffffff16565b604051610842929190610b46565b60405180910390a361089c82600160008673ffffffffffffffffffffffffffffffffffffffff1673ffffffffffffffffffffffffffffffffffffffff168152602001908152602001600020546108e490919063ffffffff16565b600160008573ffffffffffffffffffffffffffffffffffffffff1673ffffffffffffffffffffffffffffffffffffffff16815260200190815260200160002081905550505050565b600081836108f29190610b80565b905092915050565b60008135905061090981610d26565b92915050565b60008135905061091e81610d3d565b92915050565b60008135905061093381610d54565b92915050565b60006020828403121561094f5761094e610c31565b5b600061095d848285016108fa565b91505092915050565b6000806040838503121561097d5761097c610c31565b5b600061098b8582860161090f565b925050602061099c85828601610924565b9150509250929050565b600080604083850312156109bd576109bc610c31565b5b60006109cb858286016108fa565b92505060206109dc85828601610924565b9150509250929050565b6109ef81610bb4565b82525050565b6000610a02602683610b6f565b9150610a0d82610c36565b604082019050919050565b6000610a25602183610b6f565b9150610a3082610c85565b604082019050919050565b6000610a48602083610b6f565b9150610a5382610cd4565b602082019050919050565b6000610a6b601483610b6f565b9150610a7682610cfd565b602082019050919050565b610a8a81610bf8565b82525050565b6000602082019050610aa560008301846109e6565b92915050565b60006020820190508181036000830152610ac4816109f5565b9050919050565b60006020820190508181036000830152610ae481610a18565b9050919050565b60006020820190508181036000830152610b0481610a3b565b9050919050565b60006020820190508181036000830152610b2481610a5e565b9050919050565b6000602082019050610b406000830184610a81565b92915050565b6000604082019050610b5b6000830185610a81565b610b686020830184610a81565b9392505050565b600082825260208201905092915050565b6000610b8b82610bf8565b9150610b9683610bf8565b925082821015610ba957610ba8610c02565b5b828203905092915050565b6000610bbf82610bd8565b9050919050565b6000610bd182610bd8565b9050919050565b600073ffffffffffffffffffffffffffffffffffffffff82169050919050565b6000819050919050565b7f4e487b7100000000000000000000000000000000000000000000000000000000600052601160045260246000fd5b600080fd5b7f4f776e61626c653a206e6577206f776e657220697320746865207a65726f206160008201527f6464726573730000000000000000000000000000000000000000000000000000602082015250565b7f436f6e747261637420646f65736e2774206f776e20656e6f756768206d6f6e6560008201527f7900000000000000000000000000000000000000000000000000000000000000602082015250565b7f4f776e61626c653a2063616c6c6572206973206e6f7420746865206f776e6572600082015250565b7f596f7520617265206e6f7420616c6c6f77656421000000000000000000000000600082015250565b610d2f81610bb4565b8114610d3a57600080fd5b50565b610d4681610bc6565b8114610d5157600080fd5b50565b610d5d81610bf8565b8114610d6857600080fd5b5056fea26469706673582212208c8c1fd5851828de3100c18fa141fc902692014161b5cd2e1b5cb76be7dd5c5964736f6c63430008070033",
  "immutableReferences": {},
  "source": "// SPDX-License-Identifier: MIT\npragma solidity ^0.8.0;\n\nimport \"./Allowance.sol\";\n\ncontract SharedWallet is Allowance {\n\n  event MoneySent(address indexed _beneficiary, uint _amount);\n  event MoneyReceived(address indexed _from, uint _amount);\n\n  function withdrawMoney(address payable _to, uint _amount) public OwnerOrAllowed(_amount) {\n      require(_amount <= address(this).balance, \"Contract doesn't own enough money\");\n      if(!isOwner()) {\n          reduceAllowance(msg.sender, _amount);\n      }\n      emit MoneySent(_to, _amount);\n      _to.transfer(_amount);\n  }\n\n  receive() external payable {\n      emit MoneyReceived(msg.sender, msg.value);\n  }\n\n}\n",
  "sourcePath": "C:\\Work Space\\sodility\\shared-wallet\\contracts\\SharedWallet.sol",
  "compiler": {
    "name": "solc",
    "version": "0.8.7+commit.e28d00a7.Emscripten.clang"
  },
  "schemaVersion": "3.4.3",
  "updatedAt": "2021-08-21T14:26:53.093Z",
  "networkType": "ethereum",
  "devdoc": {
    "kind": "dev",
    "methods": {
      "owner()": {
        "details": "Returns the address of the current owner."
      },
      "renounceOwnership()": {
        "details": "Leaves the contract without owner. It will not be possible to call `onlyOwner` functions anymore. Can only be called by the current owner. NOTE: Renouncing ownership will leave the contract without an owner, thereby removing any functionality that is only available to the owner."
      },
      "transferOwnership(address)": {
        "details": "Transfers ownership of the contract to a new account (`newOwner`). Can only be called by the current owner."
      }
    },
    "version": 1
  },
  "userdoc": {
    "kind": "user",
    "methods": {},
    "version": 1
  }
}